S01500004D6F726E696E675F636C6F636B2E73726563CA
S1130000ACC07DC296C2C4C0BDC1C2C0C1C0C0C064
S1130010BFC0A9C2BDC0BCC0BBC0BAC0B9C0B8C013
S1130020B7C0B6C0B5C041C149C159C15FC15EC105
S11300305DC15CC15BC15AC159C160C166C174C1B3
S1130040A5C3AFC3B9C3C4C3C3C3C2C3C1C3C0C3BD
S1130050BFC3BEC3C8C3D9C3E3C3000000000001CB
S11300600101010101010101020202020202020274
S11300700203030303030303030404040404040545
S11300800505050506060606060707070708080806
S1130090080909090A0A0A0A0B0B0B0C0C0C0D0DB2
S11300A00D0E0E0F0F0F1010111111121213131445
S11300B014151516161717181819191A1A1B1C1CBB
S11300C01D1D1E1F1F202021222223242525262713
S11300D02728292A2B2B2C2D2E2F2F303132333445
S11300E03536363738393A3B3C3D3E3F4041424352
S11300F044464748494A4B4C4D4F5051525355562C
S113010057585A5B5C5E5F606263646667696A6CD9
S11301106D6E707173747678797B7C7E8081838454
S113012086888A8B8D8F91929496989A9B9D9FA195
S1130130A3A5A7A9ABADAFB1B3B5B7B9BBBDBFC19B
S1130140C4C6C8CACCCFD1D3D6D8DADCDFE1E4E662
S1130150E8EBEDF0F2F5F7FAFCFF11241FBECFE552
S1130160D4E0DEBFCDBF10E0A0E6B0E0E0E1F9E00E
S113017002C005900D92A637B107D9F720E0A6E793
S1130180B0E001C01D92A838B207E1F713D0BEC396
S113019037CFFC0110826A30710530F080818F5FA7
S11301A080836A507109F7CF618308958FB9779B73
S11301B0FECF08952FEF84E39CE0215080409040CF
S11301C0E1F700C000008EE287BB84E088BB15BA6B
S11301D08FE084BB82B38C6182BB11BAAD98A598C1
S11301E081E58DB98BB7806C8BBF95E095BF80ECB2
S11301F08ABF83E083BF12BE81E88FBD8AE08EBDD3
S11302001DBC1CBC1BBC1ABC1FBC89B78F7389BF27
S113021082B5886082BD14BC95BD13BC82B587705D
S1130220E9F789E090E059D38093870089B7806427
S113023089BF89B7816089BF1092800081E0809373
S11302407F0087E090E049D32CE3829FC001112412
S113025081589F4F6FEF70E02CD36093820085B775
S11302608F78806385BF7894DBE011E10FE080E153
S1130270F82EC2E19DE0E92E2EE0D22E3AE0C32E04
S11302804CE0B42EAFB6F89480916000882309F452
S113029056C060918000862F90E08D30910508F063
S11302A04AC0FC01ED5EFF4F099460917E0070E04E
S11302B083E890E06EDF60917D000CC08BE090E0FD
S11302C00CD3682F70E083E890E063DF8AE090E06D
S11302D004D3682F70E085E890E05BDF2EC0D093F4
S11302E08300B092840060917F0017C0D093830094
S11302F0C092840070E06250710910C0E0928300E3
S1130300D092840089E090E006C000938300F092CC
S1130310840088E090E0E1D2682F70E085E890E006
S113032038DFC093850009C0D09383001093840004
S113033087E090E0CDCF1092800010926000AFBEB5
S11303409D99A0CF85B38F6085BB89B78E7F89BF08
S113035080917B00882349F01DBC1CBC1BBC1ABCCB
S11303601FBC10927B0010927A0085B7806885BF0D
S1130370889585B78F7785BF9D9BE2CF89B78160CC
S113038089BFDECF1F920F920FB60F9211242F93C5
S11303903F934F935F936F937F938F939F93AF9309
S11303A0BF93CF93DF93EF93FF9381E0809360003B
S11303B080916100882379F08150809361008111DC
S11303C00AC01092800088E090E087D2882319F058
S11303D08CE38093610080917B00882319F18091E4
S11303E07A008F5F80937A009091820089131AC0FB
S11303F010927A0080917B00815080937B00E09181
S11304007B00E095F0E0E65AFF4FE491F0E0FBBD9D
S1130410EABD80917B00811105C01DBC1CBC1BBCC6
S11304201ABC1FBC80917C008F5F8C3319F08093C1
S11304307C0052C010927C001092770010927600DB
S113044080917D008F5F8C3319F080937D0014C000
S113045010927D0080917E008F5F883119F0809327
S11304607E000AC010927E0080917F008F5F8830EA
S113047009F481E080937F0080916200882361F118
S113048080917F0090E08150904027D2882321F111
S11304908BE090E022D2D82F8AE090E01ED2C82FC1
S11304A087E090E01AD2C81728F4D11101C0D8E12E
S11304B0D150C45CC81B80917E00D8130DC08091BC
S11304C07D00C81309C08FEF80937B001BBC1ABC4E
S11304D01DBC1CBC81E88FBDFF91EF91DF91CF91D2
S11304E0BF91AF919F918F917F916F915F914F9148
S11304F03F912F910F900FBE0F901F9018951F9250
S11305000F920FB60F9211248F939F9380B382FBA7
S1130510992790F981E089278093780010927700D9
S1130520109276009F918F910F900FBE0F901F90A5
S113053018951F920F920FB60F9211248F939F93C9
S113054080B383FB992790F981E089278093790010
S113055010927700109276009F918F910F900FBEAA
S11305600F901F9018951F920F920FB60F9211249F
S11305700F931F932F933F934F935F936F937F93A7
S11305808F939F93AF93BF93EF93FF93CF93DF9397
S11305901F92CDB7DEB785B38F6085BB198280917A
S11305A08100813041F480917C0080FF02C0198277
S11305B002C080E88983809181008330B1F49091F6
S11305C0620080918000913011F4882351F09DEFF6
S11305D0980F973048F490E0835090407ED1882360
S11305E019F080E8898301C0198280916100882311
S11305F0C9F080918100811108C080918000813010
S113060019F480E8898301C01982E09181009981FD
S1130610F0E0ED57FF4FE081F0E0ED59FF4F8081AE
S1130620892B89831091870089E090E056D1181BAB
S11306301093870080918700811121C082E080930C
S1130640870089818095B2DD8091810045B323E0E4
S113065030E0281B310981E090E002C0880F991F27
S11306602A95E2F780959095842385BB809181003B
S11306708F5F80938100843011F410928100809107
S11306807600909177000397D9F4809178008111D6
S113069005C080917900882309F4F2C08CE380932B
S11306A0610081E08093600080917B00882309F4DD
S11306B0E7C010927B001DBC1CBC1BBC1ABC1FBC39
S11306C0809176009091770001968C3221E0920718
S11306D029F09093770080937600D5C0109277002C
S11306E01092760081E080936000849911C080911B
S11306F06100882369F0809180008F5F8D3019F04C
S11307008093800005C0109280008CE38093610088
S113071080917800882319F1849B21C0809179000D
S1130720811122C08091800081110BC080917E00D4
S11307308F5F883119F080937E0089C010927E000B
S11307400EC0813009F083C08BE090E0C6D061E038
S1130750680F683109F460E08BE090E0C6D08091C6
S11307607900882309F473C0849B71C08091780058
S1130770811171C000918000802F90E08D3091052F
S113078008F065C0FC01E05EFF4F099480917D0094
S11307908F5F8C3319F080937D0075C010927D00BB
S11307A056C08AE090E099D061E0680F6C3309F498
S11307B060E08AE090E015C080917F008F5F883010
S11307C019F080937F005FC081E080937F003FC079
S11307D010E003501040C80180D061E0811160E056
S11307E0C80183D034C01FB7F89489E090E075D075
S11307F061E0680F633009F461E089E090E075D04E
S113080082E0809387001FBF22C088E090E065D01B
S113081061E0680F623009F460E088E090E0E1CFC5
S113082087E090E05AD015E0180F1F3108F01FE060
S1130830612F87E090E059D02CE3129FC00111246E
S113084081589F4F6FEF70E034D0609382008091A5
S113085078008823C1F0809179008823A1F0849BDB
S113086012C080918000823070F4809162008823ED
S113087019F01092620007C081E08093620003C007
S113088084E090E026CF0F90DF91CF91FF91EF911C
S1130890BF91AF919F918F917F916F915F914F9194
S11308A03F912F911F910F910F900FBE0F901F90AA
S11308B01895AA1BBB1B51E107C0AA1FBB1FA61793
S11308C0B70710F0A61BB70B881F991F5A95A9F7F5
S11308D080959095BC01CD010895E199FECF9FBB11
S11308E08EBBE09A99278DB30895262FE199FECF08
S11308F09FBB8EBBE09A01970DB2021631F02DBB5F
S11309000FB6F894E29AE19A0FBE0895F894FFCFD7
S1130910013C013F065B4F666D7D077F6F775E6D1F
S10909207C50305473000A
S9030000FC
