:10000000AEC0C6C2DFC2C6C0D2C1C4C0C3C0C2C0B7
:10001000C1C0F2C2BFC0BEC0BDC0BCC0BBC0BAC0C0
:10002000B9C0B8C0B7C047C14FC15FC165C164C1E5
:1000300063C162C161C160C15FC166C16CC17AC187
:1000400080C1EDC3F7C301C40CC40BC40AC409C406
:1000500008C407C406C40FC420C42AC441C4000095
:10006000000000010101010101010101020202027F
:100070000202020202030303030303030304040452
:100080000404040505050505060606060607070718
:1000900007080808080909090A0A0A0A0B0B0B0CC9
:1000A0000C0C0D0D0D0E0E0F0F0F10101111111263
:1000B0001213131414151516161717181819191AE0
:1000C0001A1B1C1C1D1D1E1F1F2020212222232441
:1000D000252526272728292A2B2B2C2D2E2F2F307C
:1000E000313233343536363738393A3B3C3D3E3F92
:1000F0004041424344464748494A4B4C4D4F50517A
:100100005253555657585A5B5C5E5F606263646633
:1001100067696A6C6D6E707173747678797B7C7EBA
:100120008081838486888A8B8D8F91929496989A09
:100130009B9D9FA1A3A5A7A9ABADAFB1B3B5B7B91F
:10014000BBBDBFC1C4C6C8CACCCFD1D3D6D8DADCF8
:10015000DFE1E4E6E8EBEDF0F2F5F7FAFCFF11245D
:100160001FBECFE5D4E0DEBFCDBF10E0A0E6B0E01B
:10017000E8EBF9E002C005900D92A837B107D9F776
:1001800020E0A8E7B0E001C01D92AB38B207E1F76C
:1001900013D010C435CFFC0110826A30710530F0E5
:1001A00080818F5F80836A507109F7CF61830895E2
:1001B0008FB9779BFECF08952FEF84E39CE0215009
:1001C00080409040E1F700C000008EE287BB84E0F1
:1001D00088BB15BA8FE084BB82B38C6182BB11BA35
:1001E000AD98A59881E58DB98BB7806C8BBF95E0F4
:1001F00095BF80EC8ABF83E083BF12BE81E88FBDCC
:100200008AE08EBD1DBC1CBC1BBC1ABC1FBC89B7C0
:100210008F7389BF82B5886082BD14BC95BD13BC45
:1002200082B58770E9F78AE090E0ABD380938A00CB
:1002300089B7806489BF89B7816089BF10928300C4
:1002400081E08093820088E090E09BD32CE3829F42
:10025000C001112481589F4F6FEF70E07ED36093EF
:10026000850085B78F78806385BF789413E1C2E1FC
:1002700004E1DBE081E1F82E9FE0E92E20E1D22EBF
:100280003DE0C32E4EE0B42E5AE0A52E6CE0962E33
:100290008FB6F89480916000882309F465C060915E
:1002A0008300862F90E08E30910508F059C0FC0144
:1002B000ED5EFF4F09946091810070E086E890E068
:1002C0006ADF609180000CC08CE090E05AD3682F08
:1002D00070E086E890E05FDF8BE090E052D3682F1B
:1002E00070E088E890E057DF3DC0D09386009092A0
:1002F00087006091820017C0D0938600A09287008B
:1003000070E06250710910C0C0928600B092870000
:100310008AE090E006C0E0928600D092870089E0F3
:1003200090E02FD3682F70E088E890E034DFC0932E
:10033000880018C0D0938600F092870088E090E093
:10034000CDCF80E090E01DD31093860087FF05C0DD
:1003500000938700682F6195C3CFC0938700BFCFFC
:1003600010928300109260008FBE9D9991CF85B34B
:100370008F6085BB89B78E7F89BF80917E0088237F
:1003800049F01DBC1CBC1BBC1ABC1FBC10927E00DB
:1003900010927D0085B7806885BF889585B78F7777
:1003A00085BF9D9BE2CF89B7816089BFDECF1F9259
:1003B0000F920FB60F9211241F932F933F934F93D9
:1003C0005F936F937F938F939F93AF93BF93CF93DD
:1003D000DF93EF93FF9381E0809360008091610051
:1003E000882379F081508093610081110AC01092B6
:1003F000830089E090E0C5D2882319F08CE38093D4
:10040000610080917E00882319F180917D008F5FCB
:1004100080937D009091850089131AC010927D0011
:1004200080917E00815080937E00E0917E00E09577
:10043000F0E0E25AFF4FE491F0E0FBBDEABD8091AD
:100440007E00811105C01DBC1CBC1BBC1ABC1FBC9E
:1004500080917F008F5F8C3309F081C010927F0004
:1004600010927A0010927900809180008F5F8C3317
:1004700019F08093800014C0109280008091810058
:100480008F5F883119F0809381000AC0109281003B
:10049000809182008F5F883009F481E08093820030
:1004A0008091620010918100882351F18091820037
:1004B00090E08050904065D2882311F18CE090E06C
:1004C00060D2D82F8BE090E05CD2C82F88E090E01B
:1004D00058D2C81728F4D11101C0D8E1D150C45C5A
:1004E000C81BD1130DC080918000C81309C08FEFC5
:1004F00080937E001BBC1ABC1DBC1CBC81E88FBD58
:10050000133081F58091800081112CC080917F0093
:10051000811128C080917800811126C0C1E0C0936C
:10052000780080E090E02DD28823F1F0282F082E6B
:10053000000C330B2C33310534F08C5380937F0047
:10054000C093800011C037FF0AC0845C80937F0095
:100550008BE38093800082E08093810005C08093CC
:100560007F0002C010927800FF91EF91DF91CF9150
:10057000BF91AF919F918F917F916F915F914F91BB
:100580003F912F911F910F900FBE0F901F901895C4
:100590001F920F920FB60F9211248F939F9380B3E7
:1005A00082FB992790F981E0892780937B00109244
:1005B0007A00109279009F918F910F900FBE0F904B
:1005C0001F9018951F920F920FB60F9211248F93C0
:1005D0009F9380B383FB992790F981E089278093CB
:1005E0007C0010927A00109279009F918F910F9069
:1005F0000FBE0F901F9018951F920F920FB60F927B
:1006000011240F931F932F933F934F935F936F93F7
:100610007F938F939F93AF93BF93EF93FF93CF936A
:10062000DF931F92CDB7DEB785B38F6085BB19828C
:1006300080918400813041F480917F0080FF02C06E
:10064000198202C080E88983809184008330B1F4EC
:100650009091620080918300913011F4882351F0D1
:100660009DEF980F973048F490E08250904089D1E8
:10067000882319F080E8898301C019828091610084
:100680008823C9F080918400811108C08091830083
:10069000813019F480E8898301C01982E0918400D7
:1006A0009981F0E0EA57FF4FE081F0E0ED59FF4F0C
:1006B0008081892B898310918A008AE090E061D142
:1006C000181B10938A0080918A00811121C082E05A
:1006D00080938A00898180956BDD8091840045B389
:1006E00023E030E0281B310981E090E002C0880F50
:1006F000991F2A95E2F780959095842385BB809178
:1007000084008F5F80938400843011F41092840001
:100710008091790090917A000397D9F480917B00C1
:10072000811105C080917C00882309F4FDC08CE311
:100730008093610081E08093600080917E00882337
:1007400009F4F2C010927E001DBC1CBC1BBC1ABC7C
:100750001FBC8091790090917A0001968C3221E043
:10076000920729F090937A0080937900E0C010926C
:100770007A001092790081E080936000849911C022
:1007800080916100882369F0809183008F5F8E30B3
:1007900019F08093830005C0109283008CE380934E
:1007A000610080917B00882319F1849B21C0809196
:1007B0007C00811122C08091830081110BC0809147
:1007C00081008F5F883119F08093810094C010926E
:1007D00081000EC0813009F08EC08CE090E0D1D055
:1007E00061E0680F683109F460E08CE090E0D1D0FE
:1007F00080917C00882309F47EC0849B7CC080911A
:100800007B0081117CC000918300802F90E08E30AE
:10081000910508F070C0FC01EF5DFF4F09948091D5
:1008200080008F5F8C3319F08093800080C010921D
:10083000800061C08BE090E0A4D061E0680F6C3371
:1008400009F460E08BE090E055C0809182008F5FFA
:10085000883019F0809382006AC081E08093820022
:100860004AC010E002501040C8018BD061E08111F5
:1008700060E0C8013FC01FB7F8948AE090E081D0E3
:1008800061E0680F633009F461E08AE090E081D0B4
:1008900082E080938A001FBF2EC089E090E071D073
:1008A00061E0680F623009F460E089E090E022C006
:1008B00088E090E066D015E0180F1F3108F01FE0C7
:1008C000612F88E090E065D02CE3129FC0011124D5
:1008D00081589F4F6FEF70E040D0609385000BC050
:1008E00080E090E04ED061E0680F60310CF061EF85
:1008F00080E090E04ED080917B008823C1F0809111
:100900007C008823A1F0849B12C0809183008230F8
:1009100070F480916200882319F01092620007C081
:1009200081E08093620003C084E090E01BCF0F90D1
:10093000DF91CF91FF91EF91BF91AF919F918F91F7
:100940007F916F915F914F913F912F911F910F91E7
:100950000F900FBE0F901F901895AA1BBB1B51E163
:1009600007C0AA1FBB1FA617B70710F0A61BB70B1F
:10097000881F991F5A95A9F780959095BC01CD01C4
:100980000895E199FECF9FBB8EBBE09A99278DB366
:100990000895262FE199FECF9FBB8EBBE09A019769
:1009A0000DB2021631F02DBB0FB6F894E29AE19A1F
:0809B0000FBE0895F894FFCF7B
:1009B800013C013F065B4F666D7D077F6F775E6D7B
:0809C8007C50305473003940EB
:00000001FF
